{
  "contractName": "pompeya",
  "abi": [
    {
      "constant": false,
      "inputs": [
        {
          "name": "id",
          "type": "uint256"
        },
        {
          "name": "tema",
          "type": "string"
        },
        {
          "name": "fecha",
          "type": "string"
        }
      ],
      "name": "registrarNuevaReunion",
      "outputs": [],
      "payable": false,
      "stateMutability": "nonpayable",
      "type": "function"
    },
    {
      "constant": true,
      "inputs": [
        {
          "name": "id",
          "type": "uint256"
        }
      ],
      "name": "consultarReunion",
      "outputs": [
        {
          "name": "",
          "type": "uint256"
        },
        {
          "name": "",
          "type": "string"
        },
        {
          "name": "",
          "type": "string"
        }
      ],
      "payable": false,
      "stateMutability": "view",
      "type": "function"
    },
    {
      "constant": false,
      "inputs": [
        {
          "name": "id",
          "type": "uint256"
        },
        {
          "name": "_idFoto",
          "type": "uint256"
        },
        {
          "name": "ruta",
          "type": "string"
        },
        {
          "name": "hash",
          "type": "string"
        }
      ],
      "name": "adicionarDatosFotosReuniones",
      "outputs": [
        {
          "name": "",
          "type": "uint256"
        }
      ],
      "payable": false,
      "stateMutability": "nonpayable",
      "type": "function"
    },
    {
      "constant": true,
      "inputs": [
        {
          "name": "id",
          "type": "uint256"
        }
      ],
      "name": "obtenerNumDatosFotosrReuniones",
      "outputs": [
        {
          "name": "",
          "type": "uint256"
        }
      ],
      "payable": false,
      "stateMutability": "view",
      "type": "function"
    },
    {
      "constant": true,
      "inputs": [
        {
          "name": "id",
          "type": "uint256"
        },
        {
          "name": "pos",
          "type": "uint256"
        }
      ],
      "name": "obtenerDatoFotosReunion",
      "outputs": [
        {
          "name": "",
          "type": "uint256"
        },
        {
          "name": "ruta",
          "type": "string"
        },
        {
          "name": "hash",
          "type": "string"
        }
      ],
      "payable": false,
      "stateMutability": "view",
      "type": "function"
    }
  ],
  "bytecode": "0x608060405234801561001057600080fd5b50610bda806100206000396000f3fe608060405234801561001057600080fd5b50600436106100575760003560e01c806339711c991461005c57806349d8e9c4146101805780634bcf1b44146102dc5780639b98a7211461031e5780639e8c361c14610438575b600080fd5b6100926004803603604081101561007257600080fd5b8101908080359060200190929190803590602001909291905050506105b2565b604051808481526020018060200180602001838103835285818151815260200191508051906020019080838360005b838110156100dc5780820151818401526020810190506100c1565b50505050905090810190601f1680156101095780820380516001836020036101000a031916815260200191505b50838103825284818151815260200191508051906020019080838360005b83811015610142578082015181840152602081019050610127565b50505050905090810190601f16801561016f5780820380516001836020036101000a031916815260200191505b509550505050505060405180910390f35b6102da6004803603606081101561019657600080fd5b8101908080359060200190929190803590602001906401000000008111156101bd57600080fd5b8201836020820111156101cf57600080fd5b803590602001918460018302840111640100000000831117156101f157600080fd5b91908080601f016020809104026020016040519081016040528093929190818152602001838380828437600081840152601f19601f8201169050808301925050505050505091929192908035906020019064010000000081111561025457600080fd5b82018360208201111561026657600080fd5b8035906020019184600183028401116401000000008311171561028857600080fd5b91908080601f016020809104026020016040519081016040528093929190818152602001838380828437600081840152601f19601f820116905080830192505050505050509192919290505050610790565b005b610308600480360360208110156102f257600080fd5b8101908080359060200190929190505050610831565b6040518082815260200191505060405180910390f35b61034a6004803603602081101561033457600080fd5b8101908080359060200190929190505050610853565b604051808481526020018060200180602001838103835285818151815260200191508051906020019080838360005b83811015610394578082015181840152602081019050610379565b50505050905090810190601f1680156103c15780820380516001836020036101000a031916815260200191505b50838103825284818151815260200191508051906020019080838360005b838110156103fa5780820151818401526020810190506103df565b50505050905090810190601f1680156104275780820380516001836020036101000a031916815260200191505b509550505050505060405180910390f35b61059c6004803603608081101561044e57600080fd5b8101908080359060200190929190803590602001909291908035906020019064010000000081111561047f57600080fd5b82018360208201111561049157600080fd5b803590602001918460018302840111640100000000831117156104b357600080fd5b91908080601f016020809104026020016040519081016040528093929190818152602001838380828437600081840152601f19601f8201169050808301925050505050505091929192908035906020019064010000000081111561051657600080fd5b82018360208201111561052857600080fd5b8035906020019184600183028401116401000000008311171561054a57600080fd5b91908080601f016020809104026020016040519081016040528093929190818152602001838380828437600081840152601f19601f8201169050808301925050505050505091929192905050506109dd565b6040518082815260200191505060405180910390f35b600060608060008086815260200190815260200160002060040184815481106105d757fe5b906000526020600020906003020160000154600080878152602001908152602001600020600401858154811061060957fe5b9060005260206000209060030201600101600080888152602001908152602001600020600401868154811061063a57fe5b9060005260206000209060030201600201818054600181600116156101000203166002900480601f0160208091040260200160405190810160405280929190818152602001828054600181600116156101000203166002900480156106e05780601f106106b5576101008083540402835291602001916106e0565b820191906000526020600020905b8154815290600101906020018083116106c357829003601f168201915b50505050509150808054600181600116156101000203166002900480601f01602080910402602001604051908101604052809291908181526020018280546001816001161561010002031660029004801561077c5780601f106107515761010080835404028352916020019161077c565b820191906000526020600020905b81548152906001019060200180831161075f57829003601f168201915b505050505090509250925092509250925092565b600160008085815260200190815260200160002060030160006101000a81548160ff0219169083151502179055508260008085815260200190815260200160002060000181905550816000808581526020019081526020016000206001019080519060200190610801929190610a89565b5080600080858152602001908152602001600020600201908051906020019061082b929190610a89565b50505050565b6000806000838152602001908152602001600020600401805490509050919050565b600060608060008085815260200190815260200160002060000154600080868152602001908152602001600020600101600080878152602001908152602001600020600201818054600181600116156101000203166002900480601f01602080910402602001604051908101604052809291908181526020018280546001816001161561010002031660029004801561092d5780601f106109025761010080835404028352916020019161092d565b820191906000526020600020905b81548152906001019060200180831161091057829003601f168201915b50505050509150808054600181600116156101000203166002900480601f0160208091040260200160405190810160405280929190818152602001828054600181600116156101000203166002900480156109c95780601f1061099e576101008083540402835291602001916109c9565b820191906000526020600020905b8154815290600101906020018083116109ac57829003601f168201915b505050505090509250925092509193909250565b600080600086815260200190815260200160002060040160405180606001604052808681526020018581526020018481525090806001815401808255809150509060018203906000526020600020906003020160009091929091909150600082015181600001556020820151816001019080519060200190610a60929190610b09565b506040820151816002019080519060200190610a7d929190610b09565b50505050949350505050565b828054600181600116156101000203166002900490600052602060002090601f016020900481019282601f10610aca57805160ff1916838001178555610af8565b82800160010185558215610af8579182015b82811115610af7578251825591602001919060010190610adc565b5b509050610b059190610b89565b5090565b828054600181600116156101000203166002900490600052602060002090601f016020900481019282601f10610b4a57805160ff1916838001178555610b78565b82800160010185558215610b78579182015b82811115610b77578251825591602001919060010190610b5c565b5b509050610b859190610b89565b5090565b610bab91905b80821115610ba7576000816000905550600101610b8f565b5090565b9056fea165627a7a72305820ec7cfa48bf42a9aeb0e7760add63abc4c275e2f585b27a43a6dfc704a1f39ff10029",
  "source": "pragma solidity ^0.5.0;\r\ncontract pompeya {\r\n    struct Foto {\r\n        uint id;\r\n        string ruta;\r\n        string hash;\r\n    }\r\n \r\n    struct Reuniones {\r\n        uint id;\r\n        string tema;\r\n        string fecha;\r\n        bool creado;\r\n        Foto[] data;\r\n    }\r\n    \r\n    mapping(uint => Reuniones) reuniones;\r\n   \r\n    \r\n    //Permite Registrar una nueva reunion\r\n    function registrarNuevaReunion(uint id, string memory tema, string memory fecha) public\r\n    {\r\n        reuniones[id].creado = true;\r\n        reuniones[id].id = id;\r\n        reuniones[id].tema = tema;\r\n        reuniones[id].fecha = fecha;\r\n       \r\n    }\r\n    \r\n    function consultarReunion(uint id) \r\n    public view returns(uint, string memory,string memory){\r\n        return(reuniones[id].id,reuniones[id].tema,reuniones[id].fecha);\r\n    }\r\n   \r\n   \r\n   //Permite adicionar datos de la foto a una reunion\r\n    function adicionarDatosFotosReuniones(uint id, uint _idFoto, string memory ruta, string memory hash) \r\n     public  returns(uint) \r\n     {\r\n        reuniones[id].data.push(Foto({\r\n            id : _idFoto,\r\n            ruta : ruta,\r\n            hash: hash\r\n            \r\n        }));\r\n       \r\n    }\r\n    \r\n     //Permite obtener el numero de datos de fotos registrados en reuniones\r\n    function obtenerNumDatosFotosrReuniones(uint id) \r\n     public view returns(uint) {\r\n         return reuniones[id].data.length;\r\n    }\r\n    \r\n    \r\n     //Permite obtener los datos de las fotos de la reunion\r\n    function obtenerDatoFotosReunion(uint id, uint pos) \r\n     public view returns (uint, string memory ruta, string memory hash) \r\n     {\r\n        return (reuniones[id].data[pos].id, reuniones[id].data[pos].ruta, reuniones[id].data[pos].hash);\r\n\r\n     }  \r\n    \r\n}",
  "sourcePath": "C:/Users/User/Pompeya/contracts/Pompeya.sol",
  "compiler": {
    "name": "solc",
    "version": "0.5.8+commit.23d335f2.Emscripten.clang"
  },
  "schemaVersion": "3.0.12",
  "updatedAt": "2019-08-16T13:35:38.799Z",
  "devdoc": {
    "methods": {}
  },
  "userdoc": {
    "methods": {}
  }
}